{
  "contractName": "MerkleProofVerification",
  "abi": [
    {
      "inputs": [],
      "stateMutability": "nonpayable",
      "type": "constructor"
    },
    {
      "inputs": [],
      "name": "merkleRoot",
      "outputs": [
        {
          "internalType": "bytes32",
          "name": "",
          "type": "bytes32"
        }
      ],
      "stateMutability": "view",
      "type": "function",
      "constant": true
    },
    {
      "inputs": [],
      "name": "owner",
      "outputs": [
        {
          "internalType": "address",
          "name": "",
          "type": "address"
        }
      ],
      "stateMutability": "view",
      "type": "function",
      "constant": true
    },
    {
      "inputs": [
        {
          "internalType": "bytes32",
          "name": "_merkleRoot",
          "type": "bytes32"
        }
      ],
      "name": "setMerkleRoot",
      "outputs": [],
      "stateMutability": "nonpayable",
      "type": "function"
    },
    {
      "inputs": [
        {
          "internalType": "bytes32",
          "name": "leaf",
          "type": "bytes32"
        },
        {
          "internalType": "bytes32[]",
          "name": "proof",
          "type": "bytes32[]"
        }
      ],
      "name": "verifyTransactionInclusion",
      "outputs": [
        {
          "internalType": "bool",
          "name": "",
          "type": "bool"
        }
      ],
      "stateMutability": "view",
      "type": "function",
      "constant": true
    }
  ],
  "bytecode": "0x608060405234801561001057600080fd5b5033600160006101000a81548173ffffffffffffffffffffffffffffffffffffffff021916908373ffffffffffffffffffffffffffffffffffffffff1602179055506106a9806100616000396000f3fe608060405234801561001057600080fd5b506004361061004c5760003560e01c80632eb4a7ab146100515780637cb647591461006f5780638da5cb5b1461008b5780639c1e0149146100a9575b600080fd5b6100596100d9565b60405161006691906104b0565b60405180910390f35b61008960048036038101906100849190610327565b6100df565b005b610093610179565b6040516100a0919061047a565b60405180910390f35b6100c360048036038101906100be9190610350565b61019f565b6040516100d09190610495565b60405180910390f35b60005481565b600160009054906101000a900473ffffffffffffffffffffffffffffffffffffffff1673ffffffffffffffffffffffffffffffffffffffff163373ffffffffffffffffffffffffffffffffffffffff161461016f576040517f08c379a0000000000000000000000000000000000000000000000000000000008152600401610166906104cb565b60405180910390fd5b8060008190555050565b600160009054906101000a900473ffffffffffffffffffffffffffffffffffffffff1681565b60008083905060005b835181101561026d5760008482815181106101ec577f4e487b7100000000000000000000000000000000000000000000000000000000600052603260045260246000fd5b6020026020010151905080831161022d57828160405160200161021092919061044e565b604051602081830303815290604052805190602001209250610259565b808360405160200161024092919061044e565b6040516020818303038152906040528051906020012092505b508080610265906105ab565b9150506101a8565b50600054811491505092915050565b600061028f61028a8461051c565b6104eb565b905080838252602082019050828560208602820111156102ae57600080fd5b60005b858110156102de57816102c48882610312565b8452602084019350602083019250506001810190506102b1565b5050509392505050565b600082601f8301126102f957600080fd5b813561030984826020860161027c565b91505092915050565b6000813590506103218161065c565b92915050565b60006020828403121561033957600080fd5b600061034784828501610312565b91505092915050565b6000806040838503121561036357600080fd5b600061037185828601610312565b925050602083013567ffffffffffffffff81111561038e57600080fd5b61039a858286016102e8565b9150509250929050565b6103ad81610559565b82525050565b6103bc8161056b565b82525050565b6103cb81610577565b82525050565b6103e26103dd82610577565b6105f4565b82525050565b60006103f5602683610548565b91507f4f6e6c7920746865206f776e65722063616e20706572666f726d20746869732060008301527f616374696f6e00000000000000000000000000000000000000000000000000006020830152604082019050919050565b600061045a82856103d1565b60208201915061046a82846103d1565b6020820191508190509392505050565b600060208201905061048f60008301846103a4565b92915050565b60006020820190506104aa60008301846103b3565b92915050565b60006020820190506104c560008301846103c2565b92915050565b600060208201905081810360008301526104e4816103e8565b9050919050565b6000604051905081810181811067ffffffffffffffff821117156105125761051161062d565b5b8060405250919050565b600067ffffffffffffffff8211156105375761053661062d565b5b602082029050602081019050919050565b600082825260208201905092915050565b600061056482610581565b9050919050565b60008115159050919050565b6000819050919050565b600073ffffffffffffffffffffffffffffffffffffffff82169050919050565b6000819050919050565b60006105b6826105a1565b91507fffffffffffffffffffffffffffffffffffffffffffffffffffffffffffffffff8214156105e9576105e86105fe565b5b600182019050919050565b6000819050919050565b7f4e487b7100000000000000000000000000000000000000000000000000000000600052601160045260246000fd5b7f4e487b7100000000000000000000000000000000000000000000000000000000600052604160045260246000fd5b61066581610577565b811461067057600080fd5b5056fea264697066735822122092b3d8b232a7e30928e1ef2330427e3d12e9562a88704491454914d144bf0ceb64736f6c63430008000033",
  "immutableReferences": {},
  "source": "// SPDX-License-Identifier: MIT\r\npragma solidity ^0.8.0;\r\n\r\ncontract MerkleProofVerification {\r\n    bytes32 public merkleRoot;\r\n    address public owner;\r\n\r\n    modifier onlyOwner() {\r\n        require(msg.sender == owner, \"Only the owner can perform this action\");\r\n        _;\r\n    }\r\n\r\n    constructor() {\r\n        owner = msg.sender;\r\n    }\r\n\r\n    function setMerkleRoot(bytes32 _merkleRoot) public onlyOwner {\r\n        merkleRoot = _merkleRoot;\r\n    }\r\n\r\n    function verifyTransactionInclusion(bytes32 leaf, bytes32[] memory proof) public view returns (bool) {\r\n        bytes32 computedHash = leaf;\r\n\r\n        for (uint256 i = 0; i < proof.length; i++) {\r\n            bytes32 proofElement = proof[i];\r\n            if (computedHash <= proofElement) {\r\n                computedHash = keccak256(abi.encodePacked(computedHash, proofElement));\r\n            } else {\r\n                computedHash = keccak256(abi.encodePacked(proofElement, computedHash));\r\n            }\r\n        }\r\n\r\n        return computedHash == merkleRoot;\r\n    }\r\n}\r\n",
  "sourcePath": "E:\\charter-21BAI1010\\Task1_21BAI1010\\contracts\\MerkleProofVerification.sol",
  "compiler": {
    "name": "solc",
    "version": "0.8.0+commit.c7dfd78e.Emscripten.clang"
  },
  "schemaVersion": "3.4.16",
  "updatedAt": "2024-11-09T20:46:41.600Z",
  "networkType": "ethereum",
  "devdoc": {
    "kind": "dev",
    "methods": {},
    "version": 1
  },
  "userdoc": {
    "kind": "user",
    "methods": {},
    "version": 1
  }
}